:020000040800F2
:10000000E02000204901000883270008751400083B
:100010007F270008130A00081144000800000000B0
:10002000000000000000000000000000752E000825
:10003000350D000800000000092800086D35000893
:100040006301000863010008630100086301000800
:1000500063010008630100086301000863010008F0
:1000600063010008630100086301000863010008E0
:1000700063010008630100086301000863010008D0
:1000800063010008630100086301000863010008C0
:10009000630100086301000863010008A90F00085C
:1000A00063010008630100086301000863010008A0
:1000B0004938000863010008630100086301000873
:1000C0006301000863010008630100086301000880
:1000D00063010008513F000839400008630100082F
:1000E0006301000863010008630100086301000860
:1000F0006301000863010008630100086301000850
:10010000630100086301000863010008630100083F
:100110006301000863010008BD380008630100089E
:10012000630100086301000863010008630100081F
:10013000DFF810D000F0EAFB004800478D4D0008C2
:10014000AFF30080E02000200648804706480047C3
:10015000FEE7FEE7FEE7FEE7FEE7FEE7FEE7FEE777
:10016000FEE7FEE7713500083101000840EA0103AF
:100170009B0703D009E008C9121F08C0042AFAD25D
:1001800003E011F8013B00F8013B521EF9D2704721
:10019000421C10F8011B0029FBD1801A704710B5D2
:1001A000002200E0521C835C8C5CA34201D1002B36
:1001B000F8D1D8B2E1B2401A10BD034611F8012BB4
:1001C00000F8012B002AF9D11846704770B50F4D81
:1001D00000B92868002412E00A4602E09E4203D0DB
:1001E000521C1378002BF9D1DAB2224305D02BB17F
:1001F00024B1002100F8011B04E00446401C0678ED
:10020000002EE9D12860204670BD0000AC0000201F
:1002100070B5064604F010F9046805460A2200216C
:10022000304600F076FA2C6070BD80EA010210B50D
:1002300002F00043400022D04A001FD0010E01EB23
:100240001261C0F35600C2F3560240F4000042F4BB
:100250000002A0FB022000047F39140400D0401CDF
:1002600050EA124001D44000491EC2B20C0604EB11
:10027000D010401C4008802A02D003E0002010BDAE
:1002800020F00100002900DA0020184310BD30B42E
:1002900080EA010202F0004530F0004221F0004007
:1002A00013D090B1C30DD40DC2F31601C0F31600E4
:1002B000E41A41F4000140F400027D34914201D37C
:1002C000641C00E04900002C02DA30BC00207047BA
:1002D0004FF400000023914201D3891A03434008E0
:1002E0004FEA4101F7D151B1914202D14FF00041A3
:1002F00005E002D24FF0010101E06FF0010103EBD4
:10030000C450284430BC00F03CBA2DE9FE4F804672
:1003100081EA0300C00F0C46009021F0004123F059
:100320000045B8EB0200A94105D24046214690465F
:100330001C460B46024623F00040104347D0270DD1
:10034000C7F30A00C3F30A510290401A01904028F3
:100350006BDAC3F3130040F4801B0098924620B17F
:100360000023D2EB030A63EB0B0B01985946C0F153
:100370004002504600F0ACF906460D46504659463C
:10038000019A00F0B4F910EB08006141002487EAFB
:10039000115284EAE7731A4340D0009A62B3019A7B
:1003A000012A4FEA075215DC001B61EB02014FF0F6
:1003B000004202EA0752CDE90042001C41F58011DB
:1003C00032462B4600F023FA03B0BDE8F08F4046DA
:1003D0002146F9E7001B61EB0201001C41F5801387
:1003E00000185B412018A2F5001747EB030140EA13
:1003F000D570B6196D4111E06D084FEA360645EA31
:10040000C0754FEA0752001B61EB0201001C41F569
:10041000801149084FEA30000019514132462B46FD
:1004200003B0BDE8F04F00F0E3B9009801224000AE
:100430000023D0EB020263EBE073009821464FEA01
:10044000E074B8EB000061EB0401E9E783F00043DE
:100450005BE781F0004158E72DE9FE4F81EA030494
:1004600004F0004421F0004100944FF0000B23F011
:10047000004350EA01045ED052EA03045BD0C3F3A8
:100480000A54C1F30A552C44A4F2F3340194A0FB9E
:100490000254C1F3130141F48011C3F3130343F475
:1004A000801301FB024400FB034E840A970A44EACE
:1004B000815447EA8357A4FB076802958D0A05FB20
:1004C00007854FEA932C04FB0C542705029D4FEA45
:1004D000065847EA1637B5EB08056EEB070C870E92
:1004E000920E47EA811742EA8312A7FB0201B6EB9C
:1004F0000B0164EB00042B0D43EA0C335E1844EB54
:100500001C50DA465146E7FB0201C5F313044FEADB
:100510000B3343EA14534FEA0432019C43EA0603C7
:10052000A4F10C040294009CCDE900B400F06FF932
:1005300003B0BDE8F08F00200146F9E72DE9F04D4A
:1005400081EA030404F0004B21F0004514464FF00B
:10055000000A23F0004150EA050220D054EA0102CB
:100560001DD0C5F30A570246C5F31303C1F31300A8
:10057000C1F30A5640F4801543F48013A7EB060834
:10058000101BD64608F2FD3873EB050002D308F1C4
:10059000010801E092185B41B8F1000F03DA002076
:1005A0000146BDE8F08D00204FF4801106468446D8
:1005B0000EE0171B73EB050705D3121B63EB050356
:1005C00006434CEA010C49084FEA300092185B419F
:1005D00050EA0107EDD152EA030012D082EA04008A
:1005E00083EA0501084305D0101BAB4106D2012266
:1005F000002306E000224FF0004302E06FF001020A
:1006000053101AEB06004CEB085110EB0A0041EBBB
:100610000B01BDE8F04D00F0EBB820F00040C10D3B
:10062000C0F3160040F400007F2901DA0020704773
:10063000962903DCC1F19601C8407047963988407D
:10064000704730B50B46014600202022012409E006
:1006500021FA02F59D4205D303FA02F5491B04FA7B
:1006600002F52844151EA2F10102F1DC30BD2DE98E
:10067000F05F0546002092469B4688460646814626
:1006800040241BE0284641464746224600F050F9E8
:1006900053465A46C01A914110D311461846224675
:1006A00000F016F82D1A67EB01084F46224601208C
:1006B000002100F00DF817EB00094E41201EA4F1B7
:1006C0000104DFDC484631462A464346BDE8F09F38
:1006D000202A04DB203A00FA02F100207047914002
:1006E000C2F1200320FA03F3194390407047202AF7
:1006F00006DBCB17203A41FA02F043EAE07306E04A
:1007000041FA02F3D040C2F1200291400843194659
:1007100070472DE9F04791460F4680460446002673
:1007200014F8015B2DB100F013F90068405DC007BB
:10073000F6D12B2D02D02D2D18D0641E4A463946F5
:10074000204600F009F927B13968A14201D1C7F864
:10075000008071054FF002040BD54042002803DDF4
:1007600003F06AFE0460A007BDE8F08746F48066E7
:10077000E4E70028F8DA03F05FFE04606FF0004061
:10078000F2E70029A8BF7047401C490008BF20F0CD
:100790000100704710B4B0FA80FC00FA0CF050EA87
:1007A000010404BF10BC704749B1CCF1200421FA08
:1007B00004F411FA0CF118BF012121430843A3EB03
:1007C0000C01CB1D4FEA00614FEA102042BF002010
:1007D00010BC704700EBC35010440029A4BF10BCEC
:1007E0007047401C490008BF20F0010010BC704752
:1007F00010B5141E73F1000408DA401C41F1000129
:1008000092185B411A4301D120F0010010BD2DE97F
:10081000F04D92469B4611B1B1FA81F202E0B0FA76
:1008200080F220329046FFF753FF04460F4640EA1D
:100830000A0041EA0B0153465A46084313D01146B9
:1008400053EA010019D0C8F14002504600F070F898
:1008500005460E46504659464246FFF739FF0843C3
:1008600005D0012004E020463946BDE8F08D002087
:10087000054346EAE0762C4337430A986305E40AC9
:10088000A0EB08000022FD0A44EA47540A3002D5D2
:1008900000200146E9E7010510196941DDE9084535
:1008A00000196941BDE8F04DA2E7C1F30A52C1F356
:1008B000130140F2FF3341F480119A4202DA002022
:1008C0000146704740F233439A42A2F2334202DCBF
:1008D000524200F02DB8FFF7FBBE000030B5041EF9
:1008E00071F1000404DB4FF00044404264EB01016D
:1008F000141E73F1000405DB1C464FF00043524206
:1009000063EB0403994208BF904230BD064C074D8B
:1009100006E0E06840F0010394E8070098471034CF
:10092000AC42F6D3FFF708FC3059000850590008D4
:10093000202A04DB203A21FA02F00021704721FA34
:1009400002F3D040C2F1200291400843194670479B
:1009500000487047705800082DE9F05F8246007823
:10096000002715468B460AF10104B946302801D00C
:100970009DB113E014F8010B0127782803D0582803
:1009800001D045B10AE00DB1102D07D10027102587
:1009900014F8010B02E0082500E00A250026B04605
:1009A0000EE005FB080005FB06F1012701EB1046F0
:1009B0001FFA80F8B6F5803F00D3B94614F8010B52
:1009C000294600F018F80028EBDABBF1000F05D03B
:1009D0000FB1641E00E05446CBF80040B9F1000F9F
:1009E00006D003F029FD02210160C81EBDE8F09F7A
:1009F00048EA0640FAE73A2800D2303820F02002D0
:100A0000412A01D3A2F13700884201D34FF0FF30D1
:100A1000704700BFFEE7000000B587B02FA14FF67A
:100A2000FF7000F01BFA002030490870012144F2E9
:100A3000040001F00BFF03208DF80A0018208DF848
:100A40000B004FF40070ADF8080002A9284800F030
:100A500079FC04208DF80B000002ADF8080002A913
:100A6000234800F06FFC4FF4165003900020ADF8BF
:100A700018000C20ADF816000020ADF81400ADF8F9
:100A80001200ADF8100003A91A4803F0A9FB0122D7
:100A900040F22551174803F07EFB012240F2244129
:100AA000144803F078FB25208DF8040001208DF810
:100AB000070005208DF8050001208DF8060001A82B
:100AC00001F060FE01210B4803F022FB0AA14FF662
:100AD000E07000F0C3F907B000BD0000496E697412
:100AE0002063616D2E2E2E0A00000000180B0020DE
:100AF000000801400038014043616D3A6E6565644D
:100B00002061636B2E2E2E0A0000000010B588B005
:100B100023496846FFF751FB22A16846FFF756FBC1
:100B2000044604B934E021461F48FFF746FB22463D
:100B30001EA14FF4FC6000F091F91AA10020FFF70C
:100B400045FB044604B923E02046FFF761FB164944
:100B5000491E4860084618A142684FF4FC6000F046
:100B60007DF910A10020FFF731FB044604B90FE026
:100B70002046FFF74DFB0C49491E8860084611A12D
:100B800082684FF4FC6000F069F9002008B010BDE5
:100B90000FA14FF4784000F061F94FF0FF30F5E716
:100BA000140700202C000000190B002073686170EE
:100BB000653A25730A000000785F6572723A256411
:100BC0000A000000795F6572723A25640A0000002D
:100BD00043616D3A4572726F722064617461207472
:100BE000797065210A0000000348007808B10120EF
:100BF00070470020FCE70000180B002010B502A190
:100C0000024804F037FA10BD5800000000380140D7
:100C100010B52348B0F80004C00B00283DD0204890
:100C2000FFF7B6FA192806D91EA223A14FF478407F
:100C300000F014F905E01A4A1FA14FF6FF7000F00A
:100C40000DF91F48007898B91EA11548FFF7A7FABB
:100C500018B901201A4908700EE01BA14FF4784022
:100C600000F0FCF81CA14FF6E07000F0F7F803E08C
:100C7000FFF7C4FFFFF74AFF0948B0F8000420F46B
:100C800000400749A1F800040846B0F800046FF3DB
:100C90000E00A1F80004012010BD0020FCE70000B8
:100CA00014070020746F6F206C6F6E67207374726E
:100CB000696E67210000000043616D3A25730A00E8
:100CC000180B00204F4B000043616D3A6572726F44
:100CD000722061636B210A005B2D5D43616D3A6197
:100CE000636B2072657472790A00000001464868DF
:100CF00080B2704710B50022026847F6F0739A433D
:100D00000C6A8B6823430C6923434C6923438C6929
:100D10002343CC6923434C6A23438C6A23431A43FD
:100D20000260CB6843600B6883604B68C36010BD92
:100D300041607047704700001CB504462C480068AD
:100D4000072811D22B492A4A126831F8120001F003
:100D500071FB29482649096800EB411224480168C3
:100D600026A001F0F3F92EE000200C2103464FF6F7
:100D7000FF72CDE90010014601F066FB00208023E0
:100D80001A460146009000F057FFA01F1D49087049
:100D900015E018491B4A127831F8120001F04AFB9D
:100DA00015481849097800EB41121648017813A03C
:100DB00001F0CCF913480078401C12490870114822
:100DC0000078A042E5D9002080231A4668210090CF
:100DD00000F032FF00200C2103464FF6FF72CDE9F0
:100DE0000010682101F030FB07A001F0AFF91CBD35
:100DF0009400002018160020180E002025642025DD
:100E000073000000900000204B312D55700A4B32CA
:100E10002D446F776E094B335B4C5D2D4261636BE4
:100E20000000000010B500F08FFF03494FF4FC6094
:100E300000F014F810BD00001C5900081CB500207B
:100E4000054908600C2103464FF6FF72CDE90010FA
:100E5000014601F0F9FA1CBD940000200FB43EB524
:100E6000044608A802904048029A079903F0D2FA73
:100E7000002002903D480068402870D23C483B4921
:100E8000096820F811403B49384A126801EB4210CA
:100E90003549FFF792F938480078022858D133488D
:100EA0000068072811D23249304A126831F812001E
:100EB00001F0C0FA2F482D49096800EB41122B4878
:100EC00001682EA001F042F932E000200C21034617
:100ED0004FF6FF72CDE90010014601F0B5FA00208F
:100EE00080231A460146009000F0A6FE1F480078B5
:100EF000801F2449087015E01D49224A127831F8F4
:100F0000120001F097FA1B481E49097800EB4112C4
:100F10001C48017819A001F019F91A480078401C02
:100F20001849087017480078104909688842E3D9C1
:100F30001548007860B100200C2103464FF6FF727F
:100F4000CDE90010682101F07FFA10A001F0FEF851
:100F500006480068401C0549086002E0FFE7FFF70B
:100F60006DFF3EBC5DF814FB981600209400002035
:100F700018160020180E00201800002025642025D7
:100F800073000000900000209C0000204B312D5584
:100F9000700A4B322D446F776E094B335B4C5D2DDD
:100FA0004261636B0000000010B5402000F01EF8A5
:100FB00001280FD1084803F0EEFF0848007830B947
:100FC0000548C0690449486101200449087040206F
:100FD00000F006F810BD0000F40600201700002005
:100FE00001490860704700001404014001460020D8
:100FF0000022074B1B6803EA0102054B14331B68F0
:101000000B4013B10AB1012000E00020704700003E
:1010100000040140002123498279002A3AD00A467F
:10102000126803689A430B461A600A1D1268036827
:101030009A430B1D1A60027911440A6803681A4327
:101040000A60184A0832126803689A43154B08333D
:101050001A601A1D126803689A43124B0C331A6007
:101060004279102A0ED11A1F126803681A430D4BD9
:1010700008331A601A1D126803681A43094B0C33AF
:101080001A600DE00749427911440A6803681A435F
:101090000A6005E0027911440A6803689A430A600D
:1010A00070470000000401402DE9FF4107460D464E
:1010B0001646072F30D2DFE807F0040A10161C226C
:1010C00028000121052001F0C1FB874C24E001210B
:1010D000092001F0BBFB854C1EE00121112001F02D
:1010E000B5FB834C18E00121212001F0AFFB814CBE
:1010F00012E00121412001F0A9FB7F4C0CE001210D
:10110000812001F0A3FB7D4C06E0012140F201109B
:1011100001F09CFB7A4C00BF00BFA8B2ADF80C00F8
:1011200003208DF80E00082E03D128208DF80F0023
:1011300008E00C2E03D148208DF80F0002E00420B7
:101140008DF80F0003A9204600F0FCF8019501205E
:101150008DF80A0000208DF808008DF8096001A8BC
:10116000FFF758FF01208DF8030006208DF80100DD
:1011700001208DF80200B5F5807F6BD012DC102DB8
:1011800048D008DC012D25D0022D2BD0042D31D0E4
:10119000082D26D136E0202D44D0402D4AD0802D78
:1011A000F7D14FE0B5F5805F76D009DCB5F5007F6B
:1011B00058D0B5F5806F5DD0B5F5006FE9D161E02D
:1011C000B5F5005F70D0B5F5804F76D0B5F5004F1E
:1011D00007D17AE006208DF800000021384600F0A3
:1011E00091F87AE007208DF800000121384600F0E0
:1011F00089F872E008208DF800000221384600F0DE
:1012000081F86AE009208DF800000321384600F0DB
:1012100079F862E00A208DF800000421384600F0D9
:1012200071F85AE017208DF800000521384600F0CB
:1012300069F852E017208DF800000621384600F0CA
:1012400061F84AE017208DF800000721384600F0C9
:1012500059F842E017208DF800000821384600F0C8
:1012600051F83AE017208DF800000921384600F0C7
:1012700049F832E028208DF800000A21384600F0B5
:1012800041F82AE028208DF800000B21384600F0B4
:1012900039F822E000E007E028208DF800000C215A
:1012A000384600F02FF818E028208DF800000D21B6
:1012B000384600F027F810E0FFE728208DF80000FE
:1012C0000E21384600F01EF807E028208DF80000B7
:1012D0000F21384600F016F800BF00BF684601F045
:1012E00051FABDE8FF81000000080140000C0140F8
:1012F000001001400014014000180140001C014092
:101300000020014030B500228B071C0F0F2303FA89
:1013100004F20B4B8C1053F824309343084C8D107F
:1013200044F8253023468C1053F824308C07240FC2
:1013300000FA04F42343024C8D1044F8253030BDEC
:10134000080001402DE9F04102460025002600205A
:1013500000230024002791F803C00CF00F0591F83A
:1013600003C00CF0100CBCF1000F03D091F802C0C8
:101370004CEA050591F800C0BCF1000F31D01468AB
:1013800000202BE04FF0010C0CFA00F3B1F800C084
:101390000CEA03069E4220D183004FF00F0C0CFA9A
:1013A00003F7BC4305FA03FC4CEA040491F803C0BC
:1013B000BCF1280F06D14FF0010C0CFA00FCC2F86A
:1013C00014C00AE091F803C0BCF1480F05D14FF0FA
:1013D000010C0CFA00FCC2F810C0401C0828D1D344
:1013E0001460B1F800C0BCF1FF0F34DD5468002078
:1013F0002EE000F1080C4FF0010808FA0CF3B1F8E8
:1014000000C00CEA03069E4221D183004FF00F0C6E
:101410000CFA03F7BC4305FA03FC4CEA040491F808
:1014200003C0BCF1280F05D100F1080C08FA0CF834
:10143000C2F8148091F803C0BCF1480F07D100F145
:10144000080C4FF0010808FA0CF8C2F81080401C94
:101450000828CED35460BDE8F0810246002093688E
:101460000B400BB1012000E0002070474161704744
:101470000161704700BFFEE710B50446A189A0686E
:10148000FFF7EBFF10BD000010B50CA14FF6FF7089
:10149000FFF7E4FC00F02CF80C4800F083FB0C484C
:1014A00000F080FB0B4800F07DFB0B4800F07AFB5E
:1014B0000AA14FF4FC60FFF7D1FC10BD496E6974BE
:1014C000204B6579732E2E2E0A000000BC000020F0
:1014D000D4000020EC000020040100204B6579734B
:1014E00020696E697420646F6E65210A0000000037
:1014F00008B50121202001F0A9F928208DF803006A
:1015000003208DF802002EA02F4908602F48886024
:1015100008208881012088710420C8816820088201
:101520004FF4CA7048820820ADF800006946274889
:10153000FFF708FF26A0284908602448886010208B
:101540008881012088710420C881682008824FF4B6
:10155000CA7048821020ADF8000069461B48FFF7AA
:10156000F1FE1EA01F49086018488860202088816D
:10157000012088710420C881682008824FF4CA7055
:1015800048822020ADF8000069461048FFF7DAFED7
:1015900015A0174908600D48886040208881012007
:1015A00088710420C881682008824FF4CA7048827C
:1015B0004020ADF8000069460448FFF7C3FE08BDAF
:1015C0004B45593100000000BC00002000140140D0
:1015D0004B45593200000000D40000204B455933E0
:1015E00000000000EC0000204B45593400000000D2
:1015F000040100200749097831B1012905D00229E9
:1016000004D0032904D102E002E000BF00E000BFE3
:1016100000BF70471800002010B50446404800780D
:1016200009287AD2DFE800F005064070131C252E49
:10163000370072E03B480079032807D03AA12068C0
:10164000FEF7ADFD10B93A4802F0C4FB65E036A1E3
:101650002068FEF7A4FD10B9364802F0BBFB5CE041
:1016600031A12068FEF79BFD10B9324802F0B2FBB1
:1016700053E02DA12068FEF792FD10B92D4802F02D
:10168000A9FB4AE028A12068FEF789FD10B9294886
:1016900002F0A0FB41E024A12068FEF780FD10B914
:1016A000244802F097FB38E023A12068FEF777FD7D
:1016B00068B92348006807281DD321480068401EE8
:1016C0001F49086008460068FFF736FB13E01DA1BC
:1016D0002068FEF764FD70B9194800681B49096865
:1016E000884208D216480068401C15490860084620
:1016F0000068FFF721FB0CA12068FEF750FD10B930
:101700000B4802F067FB08E007A12068FEF747FDE1
:1017100010B9074802F05EFB00BF00BF10BD00001B
:1017200018000020EC0000204B4559330000000059
:10173000240B0020780B00204B455931000000009D
:10174000980000204B455932000000009400002012
:101750000749097831B1012905D0022904D00329AC
:1017600004D102E002E000BF00E000BF00BF70470C
:101770001800002010B50446F54800780A285ED20B
:10178000DFE800F0055EF3F2AFFCF0EFEEEDF1A163
:101790002068FEF704FD78B9F04890F85000002862
:1017A00006DDEE4890F85000401EEC4981F85000EC
:1017B000EA4802F00FFB42E0E9A12068FEF7EFFCE7
:1017C00088B9E64890F85010007B401E814206DA46
:1017D000E24890F85000401CE04981F85000DF4892
:1017E00002F0F8FA2BE0E0A12068FEF7D8FC30BB4D
:1017F000DA4890F8500030B1012808D002280AD009
:1018000003281BD10BE0DA4802F0E4FA16E0D948CD
:1018100002F0E0FA12E0D84802F0DCFA0EE000BF75
:10182000D648006800F4E060D5490843001DD3495C
:101830000860BFF34F8F00BF00BFFEE700BF84E129
:10184000C4A12068FEF7ABFC78B9C94890F85000F5
:10185000002806DDC64890F85000401EC44981F8B3
:101860005000C34802F0B6FA3AE0BDA12068FEF786
:1018700096FC88B9BE4890F85010007B401E81420B
:1018800006DABB4890F85000401CB94981F8500076
:10189000B74802F09FFA23E0B3A12068FEF77FFC6F
:1018A000F0B9B34890F85000052818D2DFE800F0EE
:1018B00003070B0F1300B34802F08CFA0FE0B24895
:1018C00002F088FA0BE0B14802F084FA07E0B04871
:1018D00002F080FA03E0AF4802F07CFA00BF00BFDC
:1018E00033E19CA12068FEF75AFC78B9A54890F82E
:1018F0005000002806DDA34890F85000401EA14982
:1019000081F850009F4802F065FA36E094A1206803
:10191000FEF745FC88B99B4890F85010007B401EAC
:10192000814206DA974890F85000401C954981F8AA
:101930005000944802F04EFA1FE08BA12068FEF799
:101940002EFCD0B98F4890F8500010B1012813D167
:101950000CE0012001F0B6F902F0C8F90CE0E6E075
:1019600090E063E036E009E0E0E0B7E0012001F05C
:10197000DDF902F0BBF900BF00BFE6E075A1206809
:10198000FEF70DFC78B9804890F85000002806DD7D
:101990007D4890F85000401E7B4981F850007A48FD
:1019A00002F018FA15E06EA12068FEF7F8FB80B986
:1019B000754890F85010007B401E814206DA72484C
:1019C00090F85000401C704981F850006E4802F0B9
:1019D00001FABAE05FA12068FEF7E1FB78B96B4835
:1019E00090F85000002806DD684890F85000401E2E
:1019F000664981F85000654802F0ECF915E058A1FD
:101A00002068FEF7CCFB80B9604890F85010007B4E
:101A1000401E814206DA5D4890F85000401C5B4948
:101A200081F85000594802F0D5F98EE049A12068AC
:101A3000FEF7B5FB78B9564890F85000002806DD4F
:101A4000534890F85000401E514981F850005048CA
:101A500002F0C0F915E042A12068FEF7A0FB80B9B2
:101A60004B4890F85010007B401E814206DA4848EF
:101A700090F85000401C464981F85000444802F05C
:101A8000A9F962E033A12068FEF789FB78B94148E3
:101A900090F85000002806DD3E4890F85000401EA7
:101AA0003C4981F850003B4802F094F915E02CA124
:101AB0002068FEF774FB80B9364890F85010007B20
:101AC000401E814206DA334890F85000401C3149EC
:101AD00081F850002F4802F07DF936E01DA1206802
:101AE000FEF75DFB68B92C48006807281DD32A481B
:101AF0000068401E2849086008460068FFF71CF986
:101B000013E017A12068FEF74AFB70B9224800686D
:101B100022490968884208D21F480068401C1E49B3
:101B2000086008460068FFF707F90EE00DE01C4862
:101B300000780749087008460078042803D1114846
:101B400002F048F900BF00BF00BF00BF10BD000099
:101B5000180000204B45593100000000240B0020E4
:101B60004B455932000000004B455934000000003D
:101B7000780B0020CC0B0020200C00200CED00E0A6
:101B80000000FA05740C0020C80C00201C0D002079
:101B9000700D0020C40D002098000020940000204B
:101BA00019000020FF2141717047002141717047E9
:101BB00070B504460D4612480078C0B901210846A8
:101BC00000F024FE00200F49C861802048610020F9
:101BD00088610861086210208860002088624FF4E4
:101BE000005048620848086001200549087005480F
:101BF000C560446001460548FFF77CF870BD0000F1
:101C000000000020280400200C380040580002404A
:101C100070B504460D461646802C00DB7F24802DCF
:101C200000DB7F252B4622462946204600F0BCF9E2
:101C3000304600F09BFD70BD2DE9F05F06460F4673
:101C400014461D46DDF828B0A64202DDB146264600
:101C50004C46AF4202DDB9462F464D46A11B491CFA
:101C6000EA1B521C01FB02F0C11700EB5161C1F3EA
:101C7000CF1A681E83B2601E82B23946304600F029
:101C800093F92D48806D4FF6FE7108402A4988650A
:101C900089152A48FFF78CFF2748806D40F0010026
:101CA0002549886548022649086135E04FF000085B
:101CB0000CE04FEA2B20214901F808000A4608F100
:101CC000010002F800B0401C1FFA80F8B8F1FF0FC5
:101CD000EFDD1C48008840F002001A49088000BF70
:101CE00015485830FFF702F80028F9DC1248806DDB
:101CF0004FF6FE7108401049886589150E48583026
:101D0000FFF716F80C48806D40F001000A4988651D
:101D1000AAF101001FFA80FABAF1000FC6DC00BF79
:101D200005485830FEF7E2FF0028F9DC4FF48060E8
:101D300003490861BDE8F09F00000240280300202D
:101D400000100140043800401CB500F0ADF9944883
:101D5000006820F00300801C914908604FF40000E7
:101D600090490861642002F0C5FF80208D49086118
:101D7000642002F0BFFF4FF400608A4908616420CC
:101D800002F0B8FF112000F0DBFC782002F0B2FF77
:101D9000B12000F0D5FC052000F0E2FC3C2000F072
:101DA000DFFC3C2000F0DCFCB22000F0C9FC052088
:101DB00000F0D6FC3C2000F0D3FC3C2000F0D0FC2E
:101DC000B32000F0BDFC052000F0CAFC3C2000F070
:101DD000C7FC3C2000F0C4FC052000F0C1FC3C2006
:101DE00000F0BEFC3C2000F0BBFCB42000F0A8FCDE
:101DF000032000F0B5FCC02000F0A2FC282000F079
:101E0000AFFC082000F0ACFC042000F0A9FCC120CD
:101E100000F096FCC02000F0A3FCC22000F090FC73
:101E20000D2000F09DFC002000F09AFCC32000F083
:101E300087FC8D2000F094FC2A2000F091FCC42047
:101E400000F07EFC8D2000F08BFCEE2000F088FC82
:101E5000C52000F075FC1A2000F082FC362000F04E
:101E60006FFC4F48007800F0030030B1012808D023
:101E700002280AD0032810D10BE0082000F070FCE3
:101E80000CE0C82000F06CFC08E0782000F068FC52
:101E900004E0A82000F064FC00E000BF00BFE020E8
:101EA00000F04EFC042000F05BFC222000F058FC07
:101EB000072000F055FC0A2000F052FC2E2000F014
:101EC0004FFC302000F04CFC252000F049FC2A207B
:101ED00000F046FC282000F043FC262000F040FCE7
:101EE0002E2000F03DFC3A2000F03AFC002000F0EB
:101EF00037FC012000F034FC032000F031FC1320FB
:101F000000F02EFCE12000F01BFC042000F028FC77
:101F1000162000F025FC062000F022FC0D2000F029
:101F20001FFC2D2000F01CFC262000F019FC2320B3
:101F300000F016FC272000F013FC272000F010FC16
:101F4000252000F00DFC2D2000F00AFC3B2000F0C5
:101F500007FC002000F004FC012000F001FC04203C
:101F600000F0FEFB132000F0FBFB3A2000F0E8FB42
:101F7000052000F0F5FB292000F0E2FB0020F02313
:101F80001A4601460090FFF757FE00200C21034639
:101F90004FF6FF72CDE90010014600F055FA1CBD66
:101FA0001C010020001001402DE9F04104460D46BF
:101FB00016461F463B48007800F0030030B1012868
:101FC0001ED0022836D0032868D14DE02A2000F028
:101FD000B7FBA11C88B200F0C9FBB11C88B200F0AD
:101FE000C5FB2B2000F0ACFB691C88B200F0BEFBE7
:101FF000791C88B200F0BAFB2C2000F0A1FB4DE068
:102000002A2000F09DFBA11C88B200F0AFFBB11CA0
:1020100088B200F0ABFB2B2000F092FBE91C88B2E9
:1020200000F0A4FBF91C88B200F0A0FB2C2000F00B
:1020300087FB33E02A2000F083FB611C88B200F0AC
:1020400095FB711C88B200F091FB2B2000F078FB0F
:10205000A91C88B200F08AFBB91C88B200F086FB8C
:102060002C2000F06DFB19E02A2000F069FBE11C38
:1020700088B200F07BFBF11C88B200F077FB2B20CC
:1020800000F05EFBA91C88B200F070FBB91C88B29E
:1020900000F06CFB2C2000F053FB00BF00BFBDE83C
:1020A000F08100001C01002000B587B001218803E9
:1020B00000F0BCFB0121182000F0C8FB4FF4686061
:1020C000ADF8180010208DF81B0003208DF81A00C1
:1020D00006A91B48FFF736F94FF468611848FFF767
:1020E000C7F918208DF81B004FF42040ADF81800F8
:1020F00006A91448FFF726F90020ADF81000ADF846
:102100000C00ADF80A00ADF81400ADF808004FF46B
:102110004040ADF804000020ADF812004FF482708A
:10212000ADF806004FF40070ADF80E0001A90648A6
:1021300000F04EFE0121044800F033FE07B000BD60
:1021400000100140000C0140003800400FB470B591
:1021500086B000200590874C0BA804902046049A76
:102160000A9902F057F900200490FDE020787F28BA
:102170004DDD14F8010B8DF8140014F8010B8DF8E7
:1021800015007D490968C1F3CF0000EBD0717A4A90
:10219000928892B202EB6101802911DD7648406895
:1021A0006FF30F007449486008460068C00849682A
:1021B00000EB11417048406861F31F406E49486070
:1021C0006D480078C0F380006B490988C1F3C701EE
:1021D000694A9268120CCDE900210290664A128980
:1021E00093B2654A5268110C634A928890B205AA6C
:1021F00000F0E0F9604880885F49096800EBD10190
:102200005D48406861F30F005B494860ACE02078AE
:102210000A2813D1584840686FF30F0056494860A8
:1022200008460068C008496800EB11415248406800
:1022300061F31F4050494860641C95E020780928EC
:1022400030D14D48808880B24B490968C1F3CF0135
:10225000022202FB0100802812DD474840686FF32C
:102260000F004549486008460068C008496800EB0F
:1022700011414148406861F31F403F4948600FE009
:102280003D48808880B23C490968C1F3CF010222F1
:1022900002FB01013848406861F30F00364948608D
:1022A000641C61E020780D2806D1334840686FF344
:1022B0000F003149486057E02F490968C1F3CF004A
:1022C00000EBD0712C4A928892B202EB6101802916
:1022D00011DD294840686FF30F0027494860084620
:1022E0000068C008496800EB11412348406861F369
:1022F0001F402149486020480068C0F3CF001E49B4
:10230000496800EB1140802803DD06B070BC5DF821
:1023100014FB19480078C0F3800117480088C0F307
:10232000C700154A9268120CCDE90020029114F8FA
:10233000012B114D2D89ABB20F4D6D68290C0E4D3F
:10234000AD88A8B200F0A6F80B490968C1F3CF0028
:1023500000EBD0714A10084989880A440649496847
:1023600062F30F01044A5160207800287FF4FEAE2A
:1023700000BFCAE7280100201C01002010B5044658
:102380004FF080602949086100BF00BF00BF00BF57
:1023900000BF00BF00BF00BF00BF00BF00BF00BF45
:1023A00000BF00BF00BF00BF00BF00BF00BF00BF35
:1023B00000BF00BF00BF00BF00BF00BF00BF00BF25
:1023C00000BF00BF00BF00BF00BF00BF0221184810
:1023D00000F0F3FC0028F9D02146154800F0F6FC87
:1023E00000BF00BF00BF00BF00BF00BF00BF00BFF5
:1023F00000BF00BF00BF00BF00BF00BF00BF00BFE5
:1024000000BF00BF00BF00BF00BF00BF00BF00BFD4
:1024100000BF00BF00BF00BF00BF00BF00BF00BFC4
:1024200000BF4FF480600149086110BD00100140F9
:10243000003800400349896860F30F01014A916048
:10244000704700001C010020F0B5DDE90545104E85
:10245000B66863F31F460E4FBE603E46B66862F331
:102460000F06BE603E46366865F382063E603E4615
:10247000366864F3D2063E603E46766860F30F0627
:102480007E603E46766861F31F467E60F0BD0000C8
:102490001C0100202DE9FF5F0646894692469B46B7
:1024A0000F9D0C2D09D0102D07D0182D05D0202DF3
:1024B00003D0002004B0BDE8F09F002003900096F8
:1024C000284605EBD071C1F347042046E21704EB20
:1024D0005272D2102146E31704EB5373DB10A4EBC6
:1024E000C3030BB1012300E000231A446A4392B2F4
:1024F0000192AAF1200000F0FF0A09EB0500401E3E
:1025000083B23019401E82B249463046FFF74CFD77
:102510000C2D04D10AEB4A00254901EB800800206C
:1025200002903FE0002734E01098C8B998F8000006
:102530000121B940084018B1584600F017F902E0EF
:102540000E9800F013F90398401CC0B20390039852
:1025500090FBF4F104FB1100C8B9002003901AE0CD
:1025600098F800000121B940084020B15A46494678
:102570003046FFF74DFB701C86B20098301AA0421F
:1025800005D1009E09F101001FFA80F903E0781CD3
:10259000C7B2082FC8DB00BF08F101080298401C31
:1025A00080B20290DDE901108842BBDB012081E7A7
:1025B000D45200082DE9FE4F06460F4614469846B1
:1025C000DDE90D5ADDF8309013E00C2D0AD14346B9
:1025D000224639463046CDE9015ACDF8009000F048
:1025E0000DF802E00020BDE8FE8F00BFA41C7019AA
:1025F00086B220780028E8D10120F4E72DE9FF5FBA
:102600000646894692469B460F9C00200390009602
:102610002046E21704EB5272D2102146E31704EB76
:102620005373DB10A4EBC3030BB1012300E00023C1
:102630001A44624392B2019205200290002578E08C
:1026400005EB850000EBC5003C4911F810009AF835
:10265000001088426BD105EB850000EBC5003749BF
:1026600001EB400040789AF8011088425FD109EBF5
:102670000400401E83B23019401E82B249463046E3
:10268000FFF792FC00274FE04FF0000846E010985B
:1026900008BB05EB850000EBC500284901EB4000B5
:1026A000801CC05D012101FA08F1084018B15846AC
:1026B00000F05CF802E00E9800F058F80398401C17
:1026C000C0B20390039890FBF4F104FB110008BB27
:1026D0000020039025E005EB850000EBC5001749BD
:1026E00001EB4000801CC05D012101FA08F10840A7
:1026F00020B15A4649463046FFF78AFA701C86B226
:102700000098301AA04205D1009E09F101001FFA7D
:1027100080F906E008F1010000F0FF08B8F1080FA9
:10272000B5DB00BF781CC7B201988742ACDB681CE0
:1027300085B20298854283DBBDE8FF9F48570008B9
:1027400010B504464FF00070044908612046FFF7B9
:1027500015FE4FF400700149086110BD00100140E2
:1027600010B504462046FFF709FE10BD10B504461B
:10277000200AFFF703FEE0B2FFF700FE10BD00BF26
:10278000FEE7704770B5002100230F22C47804B320
:10279000154C246804F4E064C4F5E064210AC1F136
:1027A0000403CA40447804FA03F1847814402143B6
:1027B00009010E4C0678A155047804F01F05012488
:1027C000AC4005786D11AD0005F1E025C5F800417C
:1027D00009E0047804F01F050124AC40044D06789C
:1027E000761145F8264070BD0CED00E000E400E0F5
:1027F00080E100E002490143024A11607047000095
:102800000000FA050CED00E07047000029B1064A0F
:1028100052690243044B5A6104E0034A52698243FD
:10282000014B5A61704700000010024029B1064A6E
:10283000D2690243044BDA6104E0034AD26982435D
:10284000014BDA61704700000010024029B1064ACE
:1028500092690243044B9A6104E0034A92698243FD
:10286000014B9A61704700000010024030B5002112
:102870000022002400232D4D6D6805F00C0121B1CC
:10288000042905D0082923D105E0294D056022E05F
:10289000274D05601FE0254D6D6805F47012234D2E
:1028A0006D6805F48034022505EB92421CB9214D78
:1028B000554305600BE01D4D6D6805F400351DB1F5
:1028C0001C4D5543056002E0194D5543056002E07B
:1028D000174D056000BF00BF144D6D6805F0F00195
:1028E0000909154D6B5C0568DD4045600F4D6D684D
:1028F00005F4E061090A104D6B5C4568DD408560B8
:102900000A4D6D6805F46051C90A0B4D6B5C456852
:10291000DD40C560054D6D6805F44041890B074DEC
:102920006B5CC568B5FBF3F5056130BD0010024076
:1029300000127A0000093D0003000020130000206F
:10294000002100BF03E000BF00BF4A1C91B28142DA
:10295000F9DB704710B50CA14FF6FF70FEF77EFA59
:1029600002F0A6FA052002F0D7FAFF2805D109A146
:102970004FF6E070FEF772FA04E00AA14FF4FC6033
:10298000FEF76CFA10BD0000496E69742052462EA5
:102990002E2E0A004E6F205246206D6F64756C65B6
:1029A000210A0000524620696E697420646F6E65CA
:1029B000210A000030B10749098841F00101054AA8
:1029C000118006E0034909884FF6FE721140014A62
:1029D000118070470008004000B58DB04AA14FF645
:1029E000FF70FEF73BFA4C48007800287ED18DF846
:1029F000300001208DF8050002208DF804004749C1
:102A0000099100218DF81D1010208DF81C0001A9DE
:102A1000434800F02DFB43A14FF6FF70FEF71EFA6E
:102A200002208DF8050001A9424800F021FB42A1D7
:102A30004FF6FF70FEF712FA03208DF8050001A98A
:102A4000414800F015FB41A14FF6FF70FEF706FA72
:102A500004208DF8050001A9404800F009FB40A1C1
:102A60004FF6FF70FEF7FAF90023414A2C4941481E
:102A700002F08AFA40483F49C86040A14FF6FF7013
:102A8000FEF7ECF90023424A2A49424802F07CFA58
:102A900041484049C86041A14FF6FF70FEF7DEF99A
:102AA00001234FF07E522849424802F06DFA42A1BC
:102AB0004FF6FF70FEF7D2F946483E49C8614648D6
:102AC00088610023454A2549454802F05DFA45A141
:102AD0004FF6FF70FEF7C2F900F05CF948A14FF61F
:102AE000FF70FEF7BBF900F0ABF800E00AE04AA186
:102AF0004FF6FF70FEF7B2F94CA14FF4FC60FEF701
:102B0000ADF900BF0DB000BD496E697420726F62EF
:102B10006F742E2E2E0A0000170000206666E63F16
:102B2000D4040020496E6974206D6F746F72312E69
:102B30002E2E0A0044050020496E6974206D6F74C2
:102B40006F72322E2E2E0A00B4050020496E697471
:102B5000206D6F746F72332E2E2E0A002406002013
:102B6000496E6974206D6F746F72342E2E2E0A00B8
:102B70000000A041940600200000644342696E6496
:102B8000696E67206269672061726D2E2E2E0A00C1
:102B900000008241B40600200000104342696E64C8
:102BA000696E6720736D616C6C2061726D2E2E2EC4
:102BB0000A000000F406002042696E64696E672016
:102BC00075702F646F776E206A6F696E742E2E2E6B
:102BD0000A00000000808D4300007042CDCC94407C
:102BE000D406002042696E64696E6720726F74615A
:102BF00074696F6E206A6F696E742E2E2E0A000043
:102C0000496E69742073746F702073776974636898
:102C10002E2E2E0A00000000496E697420636C613C
:102C20006D70206A61772E2E2E0A0000726F626F1F
:102C30007420496E697420646F6E65210A0000007B
:102C400000B589B001210420FFF7F0FD0121082023
:102C5000FFF7FCFD18208DF823004020ADF8200080
:102C600003208DF8220008A91448FEF76BFB002012
:102C7000ADF81A00ADF8160044F61F60ADF8180064
:102C80004720ADF8140000208DF81C0005A90C4861
:102C900000F0D4FE6020ADF804000020ADF80C0078
:102CA0000120ADF8060040F2E730ADF80A0001A9B6
:102CB000034800F077FE09B000BD0000000C0140A1
:102CC0000008004010B5044664B140F28D400C4944
:102CD00008800120FFF76EFE0AA14FF6E070FEF7B4
:102CE000BDF80BE040F2F310054908800120FFF722
:102CF00061FE09A14FF6E070FEF7B0F810BD0000CC
:102D000034080040436C616D70206A617720436134
:102D1000746368210A000000436C616D70206A6171
:102D2000772052656C65617365210A0010B5044611
:102D300064B140F2F3100C4908800120FFF73AFE1D
:102D40000AA14FF6E070FEF789F80BE040F28D40E3
:102D5000054908800120FFF72DFE09A14FF6E0701C
:102D6000FEF77CF810BD000034080040436C616D34
:102D700070206A61772052656C65617365210A0075
:102D8000436C616D70206A617720436174636821D0
:102D90000A00000010B5082240210320FEF784F944
:102DA00010BD21B1028842F04002028004E0028896
:102DB0004FF6BF731A400280704702460020138905
:102DC0000B400BB1012000E000207047818170476B
:102DD00010B50022028802F441520B884C8823432C
:102DE0008C882343CC8823430C8923434C89234379
:102DF0008C892343CC8923431A430280838B4FF26F
:102E0000FF74234083830B8A038210BD70B5044690
:102E1000002529E004F0800028B14FF480611448B7
:102E2000FEF726FB04E04FF480611148FEF71EFB1D
:102E30006006040E4FF400510D48FEF719FB0A20FE
:102E4000FFF77EFD4FF480510948FEF706FB08B1FD
:102E500044F001044FF400510548FEF707FB0A2037
:102E6000FFF76EFD681CC5B2082DD3DB204670BD90
:102E700000140140704710B500F002F810BD0000CA
:102E80000CB50020019000903348006840F4803079
:102E90003149086000BF3048006800F400300090FD
:102EA0000198401C0190009818B90198B0F5A06FE6
:102EB000F1D12948006800F4003010B101200090E1
:102EC00001E0002000900098012843D123480068C9
:102ED00040F01000214908600846006820F0030017
:102EE00008600846006840F0020008601A48406820
:102EF000194948600846406848600846406840F400
:102F0000806048600846406820F47C1048600846AD
:102F1000406840F4E81048600846006840F080705F
:102F2000086000BF0C48006800F000700028F9D06D
:102F30000948406820F00300074948600846406897
:102F400040F00200486000BF0348406800F00C00F9
:102F50000828F9D10CBD00000010024000200240FA
:102F60001FB501210846FFF761FC4FF48070ADF8F2
:102F70000A000020ADF806006320ADF808004720E5
:102F8000ADF8040001A94FF0804000F057FD1C206F
:102F90008DF8000001208DF8030002208DF801005B
:102FA0006846FFF7EFFB0121880700F0D1FC012202
:102FB0001146900700F0ECFC02F09AF80149086015
:102FC0001FBD0000A400002038B504460D4694F84B
:102FD0002C00012828D1012D12D1A078012803D17D
:102FE000E168606B016102E0E168606B4161E06B88
:102FF00010B16169E06B0161012184F86C1011E08E
:10300000A078012803D1E168606B416102E0E168CA
:10301000606B0161E06B10B16169E06B01610021DF
:1030200084F86C10002038BD94F82C00D0B90FA0A3
:103030000068009060788DF8000035B101208DF8AF
:103040000200012184F86C1005E000208DF80200D8
:10305000002184F86C1004226946206C02F02EF8DE
:103060000020E0E74FF0FF30DDE70000E0F3006B09
:1030700030B587B004460D4695F82C0084F82C0036
:1030800094F82C0001286FD1FE48007820B9FFF792
:1030900067FF0120FB490870A879082837D2DFE8CC
:1030A00000F004050C131A21282F30E00121042020
:1030B000FFF7CCFBF449E16329E001210820FFF789
:1030C000C5FBF249E16322E001211020FFF7BEFBBE
:1030D000EF49E1631BE001212020FFF7B7FBED4939
:1030E000E16314E001214020FFF7B0FBEA49E1630E
:1030F0000DE001218020FFF7A9FBE849E16306E02C
:1031000001210802FFF7A2FBE549E16300BF00BF10
:10311000E878082837D2DFE800F036040B121920CF
:10312000282F01210420FFF791FBD74820632AE0D4
:1031300001210820FFF78AFBD448206323E0012106
:103140001020FFF783FBD24820631CE001212020E0
:10315000FFF77CFBCF48206315E001214020FFF7FB
:1031600075FBCD4820630EE0C3E001218020FFF70E
:103170006DFBCA48206306E001210802FFF766FBE9
:10318000C748206300BF00BF2879082836D2DFE88F
:1031900000F035040B121920272E01210420FFF71F
:1031A00055FBB949616329E001210820FFF74EFB77
:1031B000B649616322E001211020FFF747FBB449C3
:1031C00061631BE001212020FFF740FBB1496163EF
:1031D00014E001214020FFF739FBAF4961630DE0A6
:1031E00001218020FFF732FBAC49616306E0012139
:1031F0000802FFF72BFBAA49616300BF00BF687993
:10320000082836D2DFE800F035040B121920272EEB
:1032100001210420FFF71AFB9B49A16329E001214A
:103220000820FFF713FB9949A16322E00121102038
:10323000FFF70CFB9649A1631BE001212020FFF75B
:1032400005FB9449A16314E001214020FFF7FEFA39
:103250009149A1630DE001218020FFF7F7FA8F4922
:10326000A16306E001210802FFF7F0FA8C49A1638F
:1032700000BF00BF10208DF81B0003208DF81A003E
:10328000A07948B168696061A08A80B2ADF8180081
:1032900006A9E06BFEF756F8A868A060208980B206
:1032A000ADF8180006A9206BFEF74CF8E868E0605E
:1032B000A08980B2ADF8180006A9606BFEF742F84D
:1032C00028692061208A80B2ADF8180006A9A06B99
:1032D000FEF738F8A878A07000212046FFF774FEAA
:1032E000A879A071E878E070287920716879607118
:1032F0002CE194F82C000028FAD12878062821D255
:10330000DFE800F0AA032244668866492164664823
:10331000007800F00100B0B9012144F20400FFF789
:1033200095FA5949A164491521655749E164091580
:1033300061652521442001535B48007840F08100FD
:103340005949087088E087E0584921645648007858
:1033500000F00200C8B901210420FFF777FA01212B
:103360004804FFF763FA4849A164042121654649EE
:10337000E164082161652621442001534A48007810
:1033800040F082004849087066E065E048492164E1
:103390004548007800F00400C8B901210820FFF773
:1033A00055FA01218804FFF741FA3849A16409154B
:1033B00021653649E164C914616527214420015320
:1033C0003948007840F084003749087044E043E011
:1033D000384921643448007800F00800C8B9012158
:1033E0001020FFF733FA0121C804FFF71FFA28491C
:1033F000A164091521652649E164C9146165342178
:10340000442001532848007840F08800264908707D
:1034100022E021E0284921642348007800F01000D0
:10342000C8B901213020FFF711FA01210805FFF783
:10343000FDF91749A164891421651649E164042145
:1034400061653521442001531748007840F0900011
:103450001549087000E000BF00BF1348007800F075
:10346000800058B318208DF81B0003208DF81A0037
:103470005020005B80B2ADF8180006A9A06CFDF7E3
:1034800061FF1CE00100002000080140000C014029
:10349000001001400014014000180140001C0140D0
:1034A000002001400038014002000020004400409C
:1034B00000480040004C0040005000403FE0042025
:1034C0008DF81B005420005B80B2ADF8180006A9EF
:1034D000E06CFDF737FF4FF4164002900020ADF886
:1034E00014000C20ADF812000020ADF81000ADF86B
:1034F0000E00ADF80C0002A9206C00F071FE012254
:1035000040F22551206C00F046FE4420005D8DF80D
:10351000040001208DF8070008208DF80500012027
:103520008DF8060001A8FFF72DF90121206C00F0AD
:10353000EFFD0D48007800F07F000B4908706878B7
:103540006070297E204601F04DFE00BF296A21628D
:10355000697E6176287E2076A96AA162696A6162C5
:10356000E969E16107B030BD02000020704700004A
:1035700010B51348006840F0010011490860084682
:103580004068104908400E494860084600680E49E6
:1035900008400B4908600846006820F48020086055
:1035A0000846406820F4FE0048604FF41F00886021
:1035B000FFF761FC4FF000600449086010BD000097
:1035C000001002400000FFF8FFFFF6FE08ED00E0EB
:1035D0000EB54FF48060FFF70DF9FDF723FCFFF700
:1035E000B9F9FDF751FFFFF7F7F901F0DDFCFDF741
:1035F00013FA00F0D7F80121504800F0ACF950A1BF
:103600004FF6FF70FDF72AFC51A14FF6E070FDF771
:1036100025FC5FE000200C21CDE90001029051481B
:103620004068C1EB104081B24FF6E0735C22182075
:10363000FEF730FF4FF4FA7001F05CFBFDF7D4FAAF
:1036400000B14BE000200C21CDE90001029045487B
:103650004068C1EB104081B24FF6E0737C22182025
:10366000FEF718FF4FF4FA7001F044FBFDF7BCFAC7
:1036700000B133E000200C21CDE90001029039486F
:103680004068C1EB104081B24FF6E0732F22182042
:10369000FEF700FF4FF4FA7001F02CFBFDF7A4FADF
:1036A00000B11BE000200C21CDE9000102902D4863
:1036B0004068C1EB104081B24FF6E0732D22182014
:1036C000FEF7E8FE4FF4FA7001F014FBFDF78CFAF8
:1036D00000B103E0FDF788FA00289BD000BF22A1CB
:1036E0004FF4FC60FDF7BAFB4FF4FA7001F002FBF7
:1036F00000F070FA2048FEF758FA2048FEF755FA15
:103700001F48FEF752FA1F48FEF74FFA1EA14FF46A
:10371000FC60FDF7A3FB4FF4FA7001F0EBFA012017
:103720001E490870002080231A4601460090FEF7CB
:1037300083FA1B4800F04EFB0EBD00000010004055
:103740005359535F54494D207374617274210A00B8
:103750005B2D5D43616D3A77616974696E672061C5
:10376000636B0A001C01002043616D20696E69745F
:1037700020646F6E65210A00BC000020D400002088
:10378000EC0000200401002053797374656D2069FA
:103790006E697420646F6E65210A00009C00002031
:1037A000240B00201FB51DA14FF6FF70FDF756FB3F
:1037B00001211020FFF73AF80120ADF80A0000209F
:1037C000ADF806004720ADF8040041F28730ADF8AF
:1037D000080000208DF80C0001A9154800F02EF912
:1037E00036208DF8000001208DF8030000208DF8B0
:1037F000010001208DF802006846FEF7C3FF012199
:103800000B4800F0A5F801221146094800F0C0F865
:1038100008A14FF4FC60FDF721FB1FBD496E6974E0
:10382000205359535F54494D2E2E2E0A000000009C
:10383000001000405359535F54494D20696E69741C
:1038400020646F6E65210A0010B50121880700F021
:103850008EF848B3154A4FF6FF711548006801F01D
:1038600074FC00240BE0134830F814101048006872
:1038700001F048FC002010490880601C84B20E480A
:1038800000888442EFDB00224FF6FF710848006891
:1038900001F05BFC20B900214FF0804000F05BF8A4
:1038A0000121880700F054F810BD0000895100087C
:1038B000A4000020B8160020A800002010B50121A7
:1038C0001C4800F054F8012833D14FF0E020806903
:1038D00018B105204FF0E021086117480078012851
:1038E00003DD01201449087004E013480078401CEF
:1038F000114908701148007800F0030008B9FDF77D
:1039000087F90E480068C821B0FBF1F201FB1200F4
:1039100058B90B4800F0D9FC0A4800F0D6FC0A4818
:1039200000F0D3FC094800F0D0FC0121014800F070
:103930000FF810BD001000409D000020A0000020E6
:10394000BC000020D4000020EC0000200401002076
:10395000CA430282704721B1028842F0010202800C
:1039600004E002884FF6FE731A400280704730B5BB
:103970000246002000230024158A05EA01039589E8
:1039800005EA010413B10CB1012000E0002030BDB4
:103990001AB183890B43838102E083898B4383813E
:1039A0007047000070B5002400220023058C4FF6FC
:1039B000FE7635400584028C8388048B4FF68F7524
:1039C0002C40B51E2C400D882C43751E2A400D89B5
:1039D0002A434D882A43144DA8420BD0134DA842C8
:1039E00008D0134DA84205D0124DA84202D0124D66
:1039F000A84213D14FF6F7752A404D892A434FF656
:103A0000FB752A408D882A434FF6FF652B404FF601
:103A1000FF552B408D892B43CD892B438380048315
:103A2000CD888586028470BD002C014000340140A1
:103A3000004001400044014000480140002202884B
:103A40001D4B98420ED01D4B98420BD0B0F1804FC9
:103A500008D01B4B984205D01A4B984202D01A4B03
:103A6000984204D14FF68F731A404B881A43174B74
:103A7000984207D0164B984204D04FF6FF431A40A5
:103A8000CB881A4302808B8883850B8803850A4B79
:103A900098420BD0094B984208D00E4B984205D063
:103AA0000D4B984202D00D4B984201D10B7A038600
:103AB0000123838270470000002C01400034014044
:103AC0000004004000080040000C004000100040CE
:103AD0000014004000400140004401400048014003
:103AE0007CB50446002513E004F1100050F8256071
:103AF00094F85000A84205D1324612A06168FEF742
:103B000025FB03E0314612A0FEF720FB681CC5B27E
:103B100004F1100050F8250000780028E4D10C21B1
:103B200003464FF6FF72CDE900106821FEF78CFCCA
:103B3000207818B108A0FEF709FB02E00FA0FEF7FD
:103B400005FB7CBD5B25735D2025730A000000002A
:103B50005B205D2025730A004B312D557009094B00
:103B6000322D446F776E0A4B335B4C5D4261636B61
:103B7000094B342D456E7465720000004B312D5594
:103B8000700A4B322D446F776E094B342D456E749D
:103B90006572000070B504460D4600262878207036
:103BA00068686060A86800B970BD01E0701CC6B2AA
:103BB000A86850F8260000780028F7D12673207BEB
:103BC000401C820004F11000A968FCF7CFFA00BF86
:103BD000EAE700000EB531A14FF4FC60FDF73EF9B5
:103BE00000208DF8000030A0019030480290694616
:103BF0002F48FFF7CFFF01208DF800002AA0019089
:103C00002C48029069462C48FFF7C4FF04208DF829
:103C1000000025A001902948029069462848FFF736
:103C2000B9FF05208DF800001FA0019025480290E3
:103C300069462548FFF7AEFF06208DF800001AA060
:103C400001902248029069462148FFF7A3FF072010
:103C50008DF8000014A001901E48029069461E488D
:103C6000FFF798FF08208DF800000FA001901B4877
:103C7000029069461A48FFF78DFF02208DF8000078
:103C80000020029069461748FFF784FF03208DF853
:103C9000000069461448FFF77DFF0EBD536574753B
:103CA00070205549210A00002A0000001C00002055
:103CB000240B002030000020780B0020540000204E
:103CC000740C002060000020C80C00206C00002054
:103CD0001C0D002078000020700D002084000020C2
:103CE000C40D0020CC0B0020200C00201CB5224865
:103CF00000782249087009201F49087000200C2113
:103D000003464FF6E072CDE900101E21FEF79CFB42
:103D10001BA0FEF71BFA00200C2103464FF6E072B1
:103D2000CDE9001037210846FEF78EFB24A0FEF7F0
:103D30000DFA00200C214FF6E0730246CDE9001089
:103D400050213C20FEF780FB1FA0FEF7FFF900206A
:103D500080231A4668210090FDF76EFF00200C2199
:103D600003464FF6FF72CDE900107421FEF76CFB9D
:103D700016A0FEF7EBF91CBD18000020190000206A
:103D8000092B2D2D2D2D2D2D2D2D2D2D2D2D2B0AAE
:103D9000097C0909097C0A097C0909097C0A097C52
:103DA0000909097C0A097C0909097C0A092B2D2DBE
:103DB0002D2D2D2D2D2D2D2D2D2D2B0A000000000C
:103DC000446F6E65210000004F4B00004B342D4FB7
:103DD0004B0000001CB50446002080231A46014613
:103DE0000090FDF729FF00200C2103464FF6FF72DB
:103DF000CDE900100146FEF727FB2078092873D291
:103E0000DFE800F0050969210D1115191D00204694
:103E1000FFF766FE68E02046FFF762FE64E020469A
:103E2000FFF75EFE60E02046FFF75AFE5CE02046AA
:103E3000FFF756FE58E02046FFF752FE54E02046BA
:103E4000FFF74EFE50E02BA0FEF780F900200C217A
:103E500003464FF4FC62CDE900102A211E20FEF734
:103E6000F3FA28A0FEF772F900200C2103464FF464
:103E7000FC62CDE9001036211E20FEF7E5FA24A0F1
:103E8000FEF764F900200C2103464FF4FC62CDE9F3
:103E9000001042211E20FEF7D7FA20A0FEF756F9A7
:103EA00000200C2103464FF6E072CDE90010662198
:103EB000FEF7CAFA1CA0FEF749F900200C210346C0
:103EC0004FF6FF72CDE900107421FEF7BDFA1AA07B
:103ED000FEF73CF908E01B4800681B4908600846EB
:103EE0000068FCF729FF00BF00BF20781749087061
:103EF0001CBD0000417574686F72204C6973743A80
:103F00000000000050616E205A68694B616E6700C6
:103F10004C696E2058696E67576569005965204D78
:103F2000696E674368616F005468616E6B20796FDA
:103F30007520616C6C2100004B335B4C5D2D426140
:103F4000636B0000940000209800002018000020FF
:103F500038B540F22551254800F0F3F8D0B1244897
:103F6000B0F80004C0F30E00B0F5806F12DA1F48FD
:103F700000F0A2F9C2B21E48B0F80004C0F30E046B
:103F8000601C1B49B1F8001460F30E011848A0F83A
:103F90000014025540F22441144800F0D2F80128E0
:103FA00022D11348B0F8000420F4004000F500408E
:103FB0000F49A1F800040020B1F80014C1F30E016C
:103FC0000B4A5054094800F077F900BFE320094B31
:103FD00009A210A10090164801F04CF8044A15A15E
:103FE000134801F047F800BF38BD00000038014019
:103FF00014070020CA5700082E5C557365725C5286
:104000006F626F745C7372635C43616D6572612E85
:104010006300000066696C653A25732066756E63FF
:104020003A2573206C696E653A25643A00000000F9
:104030000050004025730A0038B540F22551214850
:1040400000F07FF8D0B12048B0F80004C0F30E00B3
:10405000B0F5806F12DA1B4800F02EF9C2B21A4890
:10406000B0F80004C0F30E04601C1749B1F8001446
:1040700060F30E011448A0F80014025540F22441E8
:10408000104800F05EF801281BD10F48B0F800047A
:1040900020F4004000F500400B49A1F80004094855
:1040A00000F00AF900BF6320084B09A20FA100909D
:1040B000154800F0DFFF044A14A1134800F0DAFFAE
:1040C00000BF38BD00440040D8160020DC5700086F
:1040D0002E5C557365725C6273705F737465706D8E
:1040E0006F746F725F69742E6300000066696C659F
:1040F0003A25732066756E633A2573206C696E6588
:104100003A25643A000000000050004025730A0080
:1041100021B1828942F40052828104E082894DF605
:10412000FF731A408281704702460020B1F5007F7C
:1041300000D100BF13880B400BB1012000E000202C
:10414000704770B50246002400230025002040F689
:104150006A16B14200D100BFC1F3421501F01F033E
:10416000012606FA03F3012D02D19689334006E0B9
:10417000022D02D1168A334001E0968A33400C1298
:10418000012606FA04F41688344013B10CB101205C
:1041900000E0002070BDF0B5034600240026002595
:1041A000002040F66A17B94200D100BF1846C1F39B
:1041B000421401F01F06012707FA06F5012C01D170
:1041C0000C3004E0022C01D1103000E014301AB1A0
:1041D00007682F43076002E00768AF430760F0BD40
:1041E0002DE9F04786B005460E460024A24600BFE2
:1041F000A1460027B08900B100BF2F462C8A4CF69B
:10420000FF700440F08804432C82AC894EF6F31012
:104210000440B08831890843718908430443AC8164
:10422000AC8A4FF6FF400440B0890443AC8201A839
:10423000FEF71CFB1F48874202D1DDF810A001E009
:10424000DDF80CA0A88900F4004040B10AEBCA00D8
:1042500000EB0A1031684900B0FBF1F807E00AEB07
:10426000CA0000EB0A1031688900B0FBF1F8642045
:10427000B8FBF0F004012009642101FB1089A88932
:1042800000F4004040B1322000EBC900B0FBF1F077
:1042900000F00700044308E0322000EB091064211D
:1042A000B0FBF1F000F00F0004432C8106B0BDE834
:1042B000F08700000038014001468888C0F30800FC
:1042C0007047C1F308028280704710B5044694F924
:1042D0000500401C062876D2DFE800F08B03112D84
:1042E00051762046FDF7C8F8A179884204D1002014
:1042F00020710120607182E00020207183E020465F
:10430000FDF7BAF8A179884212D1A08A401C80B288
:10431000A082E189884207DB0120207102206071C0
:104320002046FDF715FA6AE001202071607166E011
:104330000120207167E02046FDF79EF8A1798842B0
:1043400015D1A08A401C80B2A082218A884207DB56
:1043500002202071032060712046FDF75DF94EE0D8
:104360000220207160712046FDF7F2F947E002203B
:104370002071002060712046FDF7FCF943E02046E3
:10438000FDF77AF8A179884215D1A08A401C80B245
:10439000A082618A884207DB0320207104206071BB
:1043A0002046FDF727F92AE003202071607120469E
:1043B000FDF732F923E003202071002060712046D0
:1043C000FDF7D8F91FE017E02046FDF755F8A17971
:1043D000884206D10420207160712046FDF70AF959
:1043E0000DE004202071002060712046FDF7C2F925
:1043F00009E0FF20607102E06FF0010010BD00BF16
:1044000094F90500FAE700206071A08200BFF5E78B
:1044100000BFFEE737B514460846064B6A462146FC
:1044200000F0E0F804466946002000F05EFC2046FB
:104430003EBD0000EB4C000800487047B80000206B
:1044400002E008C8121F08C1002AFAD1704770475D
:10445000002001E001C1121F002AFBD170470000BB
:104460002DE9FF5F82B00021DDE90430020DDDF8A7
:1044700040B0034318D044F61050A2F2FF3242433A
:104480001514119801281FD0A5EB0B00401C5FEA02
:10449000000A4FF000064E4FDFF83891B046504604
:1044A00015D5CAF1000413E0119801244AA301288C
:1044B00001D16FEA0B010298119AC0E90031C0E9FD
:1044C000024206B0BDE8F09FCBF10000DFE70446F2
:1044D0000021404A491842EB0450CDE9001012E097
:1044E000E00707D032463B4640464946FBF7B4FF5B
:1044F0008046894632463B4610461946FBF7ACFFDC
:1045000006460F466410002CEAD1DDE90401DDE91E
:104510000023BAF1000F06DAFBF79EFF42464B4636
:10452000FBF79AFF05E0FCF709F842464B46FCF71B
:1045300005F804460E460022284BFCF7CFF903D8B5
:104540004FF0FF30014607E00022254B2046314660
:10455000FBF7DBFEFCF7A9F9102409E0002C0ADBCD
:104560000A220023FCF783F8039B30321A55641E9D
:1045700050EA0102F2D1641C039AC4F111031444FD
:10458000119A012A03D0012208430DD10AE0084301
:1045900004D000204FF0110B119072E7A3EB0B0534
:1045A0006D1E0DE05B4504DD4FF0000205F10105D5
:1045B00004E003DA4FF00002A5F10105002AECD077
:1045C00002981199C0E90231C0E9004579E700007D
:1045D000000014400000F03F300000000000F043F5
:1045E0000000E03F2DE9FF4F95B09A468846064609
:1045F0000025EEE1252877D100242746F94A01213C
:10460000039400E0044316F8013F203B01FA03F055
:104610001042F7D130782A2811D06FF02F0330786C
:10462000A0F13002092A16D8039A44F0020402EBE2
:10463000820203EB42021044761C0390EFE758F825
:10464000042B0392002A03DA504244F400540390EE
:1046500044F00204761C30782E2816D116F8010F8B
:1046600044F004042A280DD06FF02F023078A0F116
:104670003003092B09D807EB870302EB4303C71864
:10468000761CF3E758F8047B761C30786C280FD042
:1046900006DC4C2817D068280DD06A2814D104E015
:1046A000742810D07A280FD10DE044F400140AE0E9
:1046B00044F4801401E044F440147278824202D140
:1046C00004F58014761C761C307866280BD013DC39
:1046D000582877D009DC002875D04528F6D0462820
:1046E000F4D047281AD193E118E0632835D0642824
:1046F00079D0652812D18BE1702873D008DC672847
:10470000F1D069286FD06E280DD06F2806D1ACE0AB
:1047100073282CD0752874D0782853D05246179916
:1047200090476D1C54E1C4F30250022809D00328BD
:104730000DD0D8F8001004280DD00D6008F1040841
:1047400046E1D8F80010EA17C1E90052F6E7D8F8B8
:1047500000100D80F2E70D70F0E718F8041B8DF8DB
:10476000001000208DF80100EB46012003E058F80E
:1047700004BB4FF0FF3061074FF0000102D40DE0A1
:1047800009F101018946B9420FDA8145F8DB1BF8CE
:1047900009100029F4D108E009F10101894681429C
:1047A000FADB1BF809100029F6D103985346A0EB59
:1047B000090721463846179A00F080FA284400EB92
:1047C000090507E044E008E10DE01BF8010B524643
:1047D00017999047B9F10109F7D253462146384657
:1047E000179AF2E039E00A21C4F302524FF0000BAD
:1047F0000091022A06D058F8040BC117032A09D0E9
:104800000AE023E008F1070020F00702F2E80201C5
:10481000904605E000B2C117042A01D140B2C11789
:10482000002906DA0A460021404261EB02012D22EE
:1048300002E0220504D52B228DF80420012203E09A
:10484000E20701D02022F7E7914657E00A2100E075
:1048500010214FF0000B00910BE010214FF0000BE6
:1048600044F004040827009103E008204FF0000BF7
:104870000090C4F30252022A05D058F8040B00211C
:10488000032A08D008E008F1070020F00702F2E848
:104890000201904603E080B2042A00D1C0B24FF07A
:1048A000000922072AD53278702A07D0DDF800C027
:1048B0008CF0100C5CEA0B0C05D00EE040228DF859
:1048C0000420012208E050EA010306D030238DF8CD
:1048D00004308DF8052002229146009B83F00803E6
:1048E00053EA0B030AD150EA010201D1620705D550
:1048F00030228DF804204FF001097F1E3278582AAB
:1049000004D039A20C920CAA02920BE03BA2F9E768
:104910005B46009AFBF7ABFE0C9B9B5C029A521E17
:104920000292137050EA0102F2D1029804A9081A07
:1049300000F1200B600702D524F4803400E0012749
:104940005F4502DDA7EB0B0000E0002000EB0B0150
:10495000009003984944401A0390E00306D453465C
:104960002146179A039800F0A9F90544002706E0AC
:1049700001A85246C05D179990476D1C7F1C4F459A
:10498000F6DBE0030CD553462146179A039800F056
:1049900095F9054404E030205246179990476D1C64
:1049A0000099481E00900029F5DC08E00298029961
:1049B00052460078491C0291179990476D1CBBF133
:1049C0000001ABF1010BF1DC5BE100F065F905449E
:1049D000761C307800287FF40DAE19B02846BDE86B
:1049E000F08F00000928010030313233343536377A
:1049F000383961626364656600000000303132332B
:104A000034353637383941424344454600000000CA
:104A1000600700D4062708F1070020F00700F0E83F
:104A20000223804603F0004C5FEA0C0001D097A0FF
:104A300009E0200501D596A005E0E00701D095A08A
:104A400001E0AFF24C001390307823F0004365286A
:104A50000CD006DC452809D046281DD047287FD138
:104A60003BE0662818D067287AD136E00021112F64
:104A700001DB112000E0781CCDE9000104A90CA89D
:104A8000FFF7EEFCDDE90D010C9A4FF0000B07F18A
:104A90000109109200914EE04FF000400097CDE9DF
:104AA000011004A90CA8FFF7DBFCDDE90D020C9B4B
:104AB0000F994FF0000B91461093009211B9791C99
:104AC00000EB0109B7EB090003D4C0F1FF3B07F18C
:104AD0000109A9EB0700019042E0012F00DA01274C
:104AE0000021112F01DD112000E03846CDE9000141
:104AF00004A90CA8FFF7B4FCDDE90D010C9A0091A4
:104B00004FF0000BB946109221070FD4009A4A4586
:104B100003DA914601E0A9F10109B9F1010F05DDC0
:104B2000109AA9F10101515C3029F4D0B84202DA9F
:104B300010F1040F03DA0121CDE9011010E0002883
:104B400003DC8344A9EB000102E0411C494500DD80
:104B50008946A0EB0B00401C01904FF000400290F2
:104B6000200705D40198484502DB4FF0FF30019043
:104B700000208DF84B0002980DF14B07B0F1004F6B
:104B800025D002200C902B200D90029800280CDAE2
:104B9000404202902D200D9007E00A210298FBF779
:104BA00050FD3031029007F8011D0C99481E0C9001
:104BB0000029F2DC02980028EFD1791E0D980870C8
:104BC000307800F0200040F0450007F8020D11A8F1
:104BD000C01BC01D02901398007800B1012000EBAB
:104BE0000901019801EBE071029801440398401A11
:104BF000401E0390E00306D453462146179A0398BB
:104C000000F05CF805441398007818B152461799E3
:104C100090476D1CE00323D553462146179A03980D
:104C200000F04CF805441BE0BBF1000F07DB0098D7
:104C3000584504DD1098179910F80B0001E01799FA
:104C400030205246904701980BF1010B401E05F1B0
:104C50000105019004D12E205246179990476D1CF2
:104C6000B9F10001A9F10109DEDC05E017F8010B3B
:104C70005246179990476D1C0299481E02900029D0
:104C8000F4DC53462146179A03989EE62D00000057
:104C90002B000000200000002DE9F0410446002513
:104CA0001E461746880404D405E039462020B04744
:104CB0006D1C641EF9D52846BDE8F0812DE9F04150
:104CC000044600251E469046C80301D5302700E063
:104CD0002027880404D505E041463846B0476D1CBE
:104CE000641EF9D52846BDE8F0810A68531C0B60A4
:104CF0001070704700B5034603E04FF47A7000F07F
:104D000005F8181EA3F10103F7D100BD00EBC001A7
:104D1000C9004FF0E022516100219161052111612C
:104D200000BF4FF0E021096901F480310029F8D07B
:104D300004214FF0E02211617047000010B50028F7
:104D400021D0114B0022001F196803E0814203D8D3
:104D50000A4649680029F9D152B11368841A9C4265
:104D600004D1006818441060104602E0506000E072
:104D7000186039B102680B1A934203D10B681A44C8
:104D800002604968416010BDB0000020FEF720FCC1
:104D900000BFFEE7F0B50B30154D20F007010024F1
:104DA000144A0FE003688B420BD38B4205D95E1A7D
:104DB00043184768C3E9006700E04368136002C016
:104DC00004E0021D10680028ECD12046002802D122
:104DD000286808B10020F0BD064A07481060074A5D
:104DE000121A22F00702C0E9002401202860D7E748
:104DF000B4000020B0000020E41A0020E01C0020D5
:104E000008B501212020FDF721FD10208DF80300B9
:104E1000C001ADF8000003208DF802006946184873
:104E2000FCF790FA4FF48040ADF800006946144852
:104E3000FCF788FA4FF40050ADF8000069461048BE
:104E4000FCF780FA4FF48060ADF8000069460C482A
:104E5000FCF778FA04208DF803008002ADF800001A
:104E600069460748FCF76EFA4FF400610448FCF706
:104E7000FFFA4FF480410248FCF7F8FA08BD000041
:104E80000014014070B505460C464FF40061074818
:104E9000FCF7ECFA2846FDF7B9FF2046FDF7B6FF10
:104EA0004FF400610148FCF7E3FA70BD00140140C3
:104EB00008B518A000680090FFF7A2FF0821202085
:104EC000FFF7E0FF00212120FFF7DCFF0121222076
:104ED000FFF7D8FF02212320FFF7D4FF2021252050
:104EE000FFF7D0FF03212620FFF7CCFF04226946FD
:104EF0002A2000F029F804226946302000F024F826
:104F000004213120FFF7BEFF11213720FFF7BAFF40
:104F100008BD0000AA55123470B504464FF4006174
:104F20000848FCF7A3FA2046FDF770FF0020FDF7C4
:104F30006DFF05464FF400610248FCF799FA2846D8
:104F400070BD0000001401402DE9F04107460D46F8
:104F5000164600244FF400610A48FCF787FA3846E9
:104F6000FDF754FF00BF04E0285DFDF74FFF601C14
:104F7000C4B2B442F8DB4FF400610248FCF778FA9F
:104F8000BDE8F0810014014010B50160826003713A
:104F90000024046110BD10B50446FF230022012146
:104FA000206800F03DF910BD00B585B021A14FF695
:104FB000FF70FBF753FF01213020FDF747FC012173
:104FC0000805FDF733FC03208DF8020018208DF84A
:104FD00003004FF48050ADF8000069461B48FCF711
:104FE000B1F904208DF80300ADF8000069461848B7
:104FF000FCF7A8F94FF4E13001900020ADF8100063
:105000000820ADF80E000020ADF80C00ADF80A0045
:10501000ADF8080001A90F48FFF7E2F801210D489B
:10502000FFF776F80CA14FF4FC60FBF717FF05B013
:1050300000BD0000496E69742073657269616C5F20
:1050400064656275672E2E2E0A0000000010014074
:10505000001401400050004053657269616C5F6448
:105060006562756720696E697420646F6E65210AD8
:10507000000000000FB438B505460F4C06A800909C
:105080002046009A0599FFF7C5F9002000900CE032
:10509000288821782846FFF714F9641C00BF4021B6
:1050A0002846FFF741F80028F9D020780028EFD1F2
:1050B00038BC5DF814FB0000540400202DE9F041D9
:1050C00005460C46164600270EE02888217828461B
:1050D000FFF7F7F8641C00BF40212846FFF724F8CB
:1050E0000028F9D0781C87B2B742EEDBBDE8F0812A
:1050F00010B50820FFF74EFE0446002060602060D7
:10510000204610BD2DE9F04104460E46002700253B
:1051100014B9E81EBDE8F081656815B94FF0FF309D
:10512000F8E709E0686820B164686568781C87B2B0
:1051300002E06FF00100EDE7B742F3DB6868606002
:105140002846FFF7FBFD0020E4E72DE9F041044687
:105150000F461646002514B9E81EBDE8F0816068C8
:1051600010B94FF0FF30F8E7646809E016B129463E
:105170002068B04764680CB9681CEEE7681C85B20B
:10518000BD42F3DB2846E8E7D0E91623934216D266
:10519000022380F86C30D0E91923934203D2826E47
:1051A0006432826618E0826BD26803695A40836B6E
:1051B000DA60C26D521CC265002383660CE00123D5
:1051C00080F86C30054A064B1B8822F81310044AFD
:1051D0001288521C024B1A8070470000B81600203B
:1051E000A800002038B504460D4694F82C0080B97C
:1051F0000AA00068009060788DF800008DF80250D9
:1052000004226946206CFFF759FF0520FFF772FD65
:1052100002E04FF0FF3038BD0020FCE7E084006B77
:105220002DE9FC4704460D461646984694F82C0096
:10523000002844D123A103C9CDE900012349304608
:10524000FBF725F882462249FAF7EFFF8146FBF784
:10525000E4F987B260788DF8000038128DF802000A
:10526000F8B28DF8030035B99DF8020000F00F0088
:105270008DF802000BE09DF8020000F00F008DF8A1
:1052800002009DF8020040F010008DF802008DF839
:10529000048006226946206CFFF710FF0520FFF707
:1052A00029FD6576E661002F03DD022184F86C108C
:1052B00002E0012184F86C100020BDE8FC874FF06B
:1052C000FF30FAE7E0F60000006B00000000C84283
:1052D00000E09F440000000000000000000000000B
:1052E00000000404040404000004000014140A0074
:1052F000000000000000000000000A0A1F0A0A1F48
:105300000A0A000000040E1505060C14150E040010
:10531000000012150D152E2C2A1200000000040AA0
:105320000A361515291600000202010000000000CF
:105330000000000010080804040404040808100019
:10534000020404080808080804040200000000041D
:10535000150E0E150400000000000008083E0808A5
:105360000000000000000000000000000202010038
:1053700000000000003F00000000000000000000EE
:1053800000000000000200000020101008080404C3
:105390000202010000000E1111111111110E000086
:1053A0000000040604040404040E000000000E11B2
:1053B00011080402011F000000000E11100C101053
:1053C000110E00000000080C0C0A091F081C000048
:1053D00000001F01010F1110110E000000000C123F
:1053E000010D1311110E000000001E100808040426
:1053F0000404000000000E11110E1111110E000026
:1054000000000E111119161009060000000000001E
:105410000400000000040000000000000004000080
:105420000004040000001008040202040810000038
:10543000000000003F003F000000000000000204E8
:10544000081010080402000000000E1111080404E6
:105450000004000000001C22292D2D1D221C00002C
:10546000000004040C0A0A1E1233000000000F1290
:10547000120E1212120F000000001E110101010194
:10548000110E000000000F1212121212120F000073
:1054900000001F120A0E0A02121F000000001F1255
:1054A0000A0E0A020207000000001C120101391155
:1054B000120C000000003312121E121212330000F0
:1054C00000001F0404040404041F000000003E0840
:1054D0000808080808080907000037120A060A1217
:1054E000123700000000070202020202223F000001
:1054F00000003B1B1B1B15151535000000003B125F
:1055000016161A1A1217000000000E1111111111AF
:10551000110E000000000F12120E0202020700001E
:1055200000000E1111111117190E180000000F12B2
:10553000120E0A121237000000001E110106081098
:10554000110F000000001F1504040404040E0000E5
:105550000000331212121212120C0000000033125B
:10556000120A0A0C040400000000151515150E0A95
:105570000A0A000000001B0A0A04040A0A1B0000B1
:1055800000001B0A0A0A0404040E000000001F09A0
:1055900008040402121F00001C0404040404040490
:1055A00004041C000002020404040808081010008F
:1055B0000E0808080808080808080E00040A000079
:1055C00000000000000000000000000000000000DB
:1055D0000000003F02040000000000000000000086
:1055E00000000000000C121C123C0000000302022C
:1055F000020E1212120E000000000000001C120227
:10560000120C000000181010101C1212123C0000A6
:1056100000000000000C121E021C000000182404F0
:10562000041E0404041E000000000000003C120CD4
:10563000021C221C00030202020E1212123700008A
:105640000004040000060404040E00000008080022
:10565000000C08080808080700030202021A0A06DC
:105660000A1300000007040404040404041F0000DB
:1056700000000000000F15151515000000000000C7
:10568000000F12121237000000000000000C12126E
:10569000120C000000000000000F1212120E020790
:1056A00000000000001C1212121C10380000000044
:1056B000001B06020207000000000000001E020C92
:1056C000101E000000000004041E0404041C00005E
:1056D00000000000001B1212123C0000000000003D
:1056E000001B0A0A04040000000000000015150E4B
:1056F0000A0A000000000000001B0A040A1B000048
:1057000000000000003312120C0804030000000027
:10571000001E0804041E000018080808080C0808E9
:1057200008081800080808080808080808080808F1
:105730000604040404080404040406001609000016
:105740000000000000000000D6D020002000200053
:10575000FE03220222022202FE0322022000200077
:105760002000BEB0FC010401FC010401FC0120008A
:10577000FF070401FC01200024013202D4B0FE071F
:105780000204FA0402040204FE05520452044A050B
:1057900086050204FE07B5E710001000FF011101A5
:1057A0001101FF0111011101FF0111041004E007B3
:1057B000D7D30000FC018000400020002000FF073C
:1057C0002000200020002000380055534152543161
:1057D0005F49525148616E646C6572005553415285
:1057E00054325F49525148616E646C6572000040EA
:1057F00040404040404040404141414141404040A4
:1058000040404040404040404040404040404005D3
:10581000020202020202020202020202020202204A
:10582000202020202020202020020202020202024A
:105830009090909090901010101010101010101068
:1058400010101010101010101010020202020202AC
:1058500088888888888808080808080808080808C8
:1058600008080808080808080808020202024000A0
:10587000EF5700084D6F76652064697374616E633D
:10588000650000004465627567204D6F6465000027
:105890004D6F766520616E676C65000052656C65C2
:1058A00061736500436174636800000053746F7036
:1058B000207461736B000000537461727420746112
:1058C000736B00004269672061726D00536D616CFB
:1058D0006C2061726D00000055702F646F776E0050
:1058E000496E666F000000004D656D626572730061
:1058F0005265736574000000526F746174696F6E55
:10590000206A6F696E7400005265626F6F740000E8
:10591000436C616D70206A61770000004C43442045
:10592000496E697420646F6E65210A0000000000F2
:105930005059000800000020BC000000404400084E
:105940000C5A0008BC00002024200000504400082D
:10595000000000000000000102030401020304062D
:105960000708090204060800020000008458000825
:10597000E0580008E8580008085900082C590008A9
:1059800010590008C4580008CC580008D85800081E
:10599000F8580008B8580008AC580008F05800083B
:1059A0002C590008A45800089C5800082C590008DD
:1059B000F0580008905800082C590008F0580008CA
:1059C000905800082C590008F05800087458000836
:1059D0002C590008F0580008905800082C5900086D
:1059E00000000000000000000000000000000000B7
:1059F00000000000000000000000000000000000A7
:0C5A00000000000000000000000000009A
:0400000508000131BD
:00000001FF
